:1070000055C000006EC000006CC000006AC00000E7
:1070100068C0000066C0000064C0000062C00000DC
:1070200060C000005EC00000CEC400005AC0000076
:1070300058C0000056C0000054C0000052C00000FC
:1070400050C0000092C000004CC000004AC00000C8
:1070500048C0000046C0000044C0000042C000001C
:1070600040C000003EC000003CC000003AC000002C
:1070700038C0000036C0000034C0000032C000003C
:1070800030C000002EC000002CC000002AC000004C
:1070900028C0000026C0000024C0000022C000005C
:1070A00020C000001EC000001CC0000011241FBE34
:1070B000CFEFDAE0DEBFCDBF11E0A0E0B1E0EAEE55
:1070C000FEE702C005900D92A43BB107D9F721E07D
:1070D000A4EBB1E001C01D92AD3CB207E1F71ED3B5
:1070E00002C78ECF84E08093E9008091E80085FD9F
:1070F0000DC08091E8008B778093E8008091E800D4
:1071000082FDF3CF8EB38111F9CF02C08091F100DF
:10711000089593E09093E9009091E80095FF0AC0EC
:107120008093F1005D9884E690E09093BB0180939A
:10713000BA0108959091E8009E779093E8009091AD
:10714000E80090FDEDCF9EB39111F9CF0895F8942A
:1071500010926F001092810081E085BF15BE4798A4
:107160005D9A289A0C94000008951F920F920FB612
:107170000F9211242F938F939F93EF93FF9310926D
:107180008500109284008091BA019091BB01009714
:1071900041F001979093BB018093BA01892B09F4C8
:1071A0005D9A8091B8019091B901009741F00197E3
:1071B0009093B9018093B801892B09F4289A8091A2
:1071C000B4019091B50101969093B5018093B401FB
:1071D000E0E0F0E085919491019649F08091B6014C
:1071E0009091B70101969093B7018093B601FF91FA
:1071F000EF919F918F912F910F900FBE0F901F9045
:10720000189542E061EC82E054D342E161E883E00A
:1072100050D342E160E884E04CC38091C501982FCF
:107220009F77913239F59091C601903291F0913269
:1072300009F5813AF9F48091E800877F8093E800AE
:1072400067E070E082E091E06FD48091E8008B7796
:107250000FC0813279F48091E800877F8093E80045
:1072600067E070E082E091E0C3D48091E8008E771F
:107270008093E80008954F925F926F927F928F9271
:107280009F92AF92BF92CF92DF92EF92FF920F93B5
:107290001F93CF93DF9384E08093E9008091E8000F
:1072A00082FF2BC2289884E690E09093B9018093E6
:1072B000B80118DFC82F853481F48CEA9DE09093E3
:1072C000B7018093B60107B600FCFDCFF999FECF58
:1072D00081E180935700E89503C0843521F402DFF3
:1072E0008DE017DFE1C18C34D9F38035C9F38437E1
:1072F00021F484E40EDF80E0F4CF813611F489E5D7
:10730000F0CF813491F4EEDEC82FECDE2C2F30E08C
:10731000322F2227330F90E0880F991F822B932B57
:10732000092E000CAA0BBB0B93C1803711F483E527
:10733000D8CF833549F4CDEAD1E08991EADE21E066
:10734000C43BD207D1F7B0C1863521F481E3E1DE39
:1073500080E3C7CF833731F487E8DBDE85E9D9DE08
:107360008EE1BFCF8536B9F4E0E0F0E083E095E050
:1073700080935700E89507B600FCFDCF9093570027
:10738000E89507B600FCFDCFE058FF4FE11540E758
:10739000F40771F7A5CF823719F4E1E0F0E00EC0F1
:1073A000863419F4E0E0F0E009C08E3419F4E3E02B
:1073B000F0E004C0813539F4E2E0F0E089E0809348
:1073C000570084918ECF823631F489E5A2DE80E0C9
:1073D000A0DE80E886CF823419F0873609F0D0C06D
:1073E0001092B7011092B6017DDE082F7BDED82FF8
:1073F00079DE182F8BEB810F823010F08FE371CF85
:107400008D2F90E0902B10926F00C73609F042C08C
:1074100021E120935700E895EC01B12C01E0209781
:1074200009F4AAC0C090BD01D090BE01E090BF0198
:10743000F090C0011634B9F4EB2DF0E0EC29FD29F1
:10744000849167DEBB2069F052E0C50ED11CE11CBF
:10745000F11CC092BD01D092BE01E092BF01F0923A
:10746000C001B02615C0D701C601B695A79597955E
:10747000879523D54EDE82E0C80ED11CE11CF11C9D
:10748000C092BD01D092BE01E092BF01F092C00156
:107490002197C5CF8090BD019090BE01A090BF0103
:1074A000B090C001163441F423E0F401209357005A
:1074B000E89507B600FCFDCFE12CF12CEC0101E0D2
:1074C000209709F44DC0163439F5FF2009F140909A
:1074D000BD015090BE016090BF017090C00102DEFE
:1074E0002E2D30E0A901582BF2010A01009357001C
:1074F000E8951124F2E04F0E511C611C711C409262
:10750000BD015092BE016092BF017092C00102C0E5
:10751000E9DDE82EF02622C0E5DD682F8091BD016F
:107520009091BE01A091BF01B091C001B695A79501
:1075300097958795CAD48091BD019091BE01A09185
:10754000BF01B091C0010296A11DB11D8093BD0184
:107550009093BE01A093BF01B093C0012197B0CF1B
:10756000163441F485E0F40180935700E89507B69E
:1075700000FCFDCF8DE0CDDD82E080936F0094C0F4
:10758000833471F4C091BD01D091BE01ABDD90E0B8
:1075900021E0FE010C0120935700E8951124A0CEB4
:1075A000833601F5C090BD01D090BE01E090BF01CF
:1075B000F090C00197DDF601E16090E021E00C0160
:1075C00020935700E8951124F2E0CF0ED11CE11C66
:1075D000F11CC092BD01D092BE01E092BF01F092B9
:1075E000C0017ECE8D3661F4E091BD01F091BE0107
:1075F00085E080935700E89507B600FCFDCF70CE7C
:10760000823551F4E091BD01F091BE01C591D49154
:107610008D2F7FDD8C2F65CE843419F563DD682FC7
:107620008091BD019091BE01A091BF01B091C001B8
:10763000B695A7959795879548D48091BD0190916F
:10764000BE01A091BF01B091C0010296A11DB11D64
:107650008093BD019093BE01A093BF01B093C00180
:107660003FCE8436F1F4C090BD01D090BE01E090D1
:10767000BF01F090C001D701C601B695A7959795B7
:1076800087951BD446DD22E0C20ED11CE11CF11C03
:10769000C092BD01D092BE01E092BF01F092C00144
:1076A00003C08B3109F0AACE83E08093E90090916A
:1076B000E8008091E8008E778093E80095FD11C086
:1076C0008091E80080FD04C08EB38111F9CF15C010
:1076D0008091E8008E778093E80003C08EB3882302
:1076E00061F08091E80080FFF9CF84E08093E900A9
:1076F0008091E8008B778093E800DF91CF911F9114
:107700000F91FF90EF90DF90CF90BF90AF909F9040
:107710008F907F906F905F904F900895CF9390914E
:1077200000081092000884B714BE0FB6F894A8950C
:1077300020916000286120936000109260000FBECD
:1077400040E820E00FB6F894409361002093610078
:107750000FBE21E025BF32E035BF3F9A209A559AEF
:10776000409361001092610047985D9A289A1092A8
:1077700089004AEF4093880030936F0033E03093E4
:107780008100E0E0F0E0459154914F3F5F4F11F0F0
:107790002093BC0181FF20C0209100019217E1F0ED
:1077A00020930008789480910101882339F080911A
:1077B000B4019091B50188379140C8F3109201014E
:1077C00010920008F89481E0809301018091BC013F
:1077D000882371F0BCDC0CC080FF04C02091BC0188
:1077E0002111F8CF83FF04C0809100019813EECFE0
:1077F000D1D078941092B7011092B601CEEF80915B
:1078000001018823D1F037DD46D38091C1019091E9
:10781000C20101969093C2018093C101292F97FF65
:1078200002C02C2F291B9927220F30E02817390777
:1078300014F44798E4CF479AE2CF8091E00081604A
:107840008093E00084DC80E090E0CF910895292FC0
:1078500030E02230310559F02330310569F0213014
:107860003105F9F482E190E02BE931E01EC08EE3AE
:1078700090E02DE531E019C0882349F0813061F0B6
:10788000823079F48AE290E029E031E00EC084E0B1
:1078900090E029E531E009C082E290E025E331E0A3
:1078A00004C080E090E020E030E0FA0131832083E2
:1078B00008958093E9008091EB0081608093EB0054
:1078C0001092ED006093EC004093ED008091EE008B
:1078D000881F8827881F08958091C50188238CF40C
:1078E00003C08EB38823B1F08091E80082FFF9CF06
:1078F0008091E8008B778093E80008958EB3882309
:1079000049F08091E80080FFF9CF8091E8008E7700
:107910008093E8000895EF92FF920F931F9346D053
:107920004DD008ED10E0F80180818F778083808151
:107930008068808380818F7D808319BC1EBA1092FD
:10794000C30180EEE82EF12CF70180818B7F8083CC
:10795000F80180818160808380E060E042E0A9DFFF
:10796000E1EEF0E080818E7F8083E2EEF0E08081C6
:1079700081608083808188608083F70180818E7F31
:107980008083F8018081806180831F910F91FF9037
:10799000EF900895E7EDF0E08081816080838AE4D4
:1079A00082BF81E08093C401B6CF0895E8EDF0E096
:1079B00080818E7F80831092E20008951092DA0019
:1079C0001092E10008951F920F920FB60F921124AA
:1079D0002F933F934F935F936F937F938F939F93D7
:1079E000AF93BF93EF93FF938091DA0080FF1BC0AA
:1079F0008091D80080FF17C08091DA008E7F80933D
:107A0000DA008091D90080FF0BC080E189BD82E15E
:107A100089BD09B400FEFDCF81E08EBB3BD203C01F
:107A200019BC1EBA37D28091E10080FF17C0809147
:107A3000E20080FF13C08091E2008E7F8093E2001D
:107A40008091E20080618093E2008091D8008062A2
:107A50008093D80019BC85E08EBB1CD28091E100D8
:107A600084FF2CC08091E20084FF28C080E189BDA2
:107A700082E189BD09B400FEFDCF8091D8008F7DE1
:107A80008093D8008091E1008F7E8093E100809107
:107A9000E2008F7E8093E2008091E200816080931B
:107AA000E2008091C301882331F48091E30087FDD7
:107AB00002C081E001C084E08EBBECD18091E10086
:107AC00083FF21C08091E20083FF1DC08091E1000F
:107AD000877F8093E10082E08EBB1092C30180918A
:107AE000E1008E7F8093E1008091E2008E7F8093A1
:107AF000E2008091E20080618093E20080E060E03B
:107B000042E0D7DEC7D1FF91EF91BF91AF919F9136
:107B10008F917F916F915F914F913F912F910F9036
:107B20000FBE0F901F9018959C014091CB01509172
:107B3000CC014617570718F4F90190E044C06115CD
:107B4000710511F0AB01F8CF8091E8008E7780933A
:107B5000E80040E050E0F0CF8EB3882309F444C041
:107B6000853009F443C08091E80083FF02C081E0C2
:107B700008958091E80082FD31C08091E80080FF87
:107B800022C08091F3009091F200782F60E0292FBD
:107B900030E0262B372B07C081918093F1004150B4
:107BA00050402F5F3F4F4115510519F028303105E6
:107BB00098F390E02830310509F491E08091E800D5
:107BC0008E778093E8004115510531F6992321F60F
:107BD00005C08EB3882341F0853041F08091E800E4
:107BE00082FFF7CF80E0089582E0089583E0089552
:107BF0009C016115710529F48091E8008B778093D1
:107C0000E800F90126C08EB3882391F1853091F107
:107C10008091E80083FF02C081E008958091E80030
:107C200082FFF1CF06C08091F100819361507040D6
:107C300059F02091F3008091F200322F20E090E083
:107C4000822B932B892B79F78091E8008B77809397
:107C5000E80061157105B9F605C08EB3882341F0BF
:107C6000853041F08091E80080FFF7CF80E00895F3
:107C700082E0089583E008950F931F93DF93CF93DD
:107C800000D0CDB7DEB7E5ECF1E08091F100819353
:107C900081E0ED3CF807C9F7C0DA8091E80083FF86
:107CA000E4C08091C5019091C601953009F46DC082
:107CB000963040F4913081F1913070F0933009F0BA
:107CC000D4C02AC0983009F4A3C0993009F4B2C0D6
:107CD000963009F0CAC07CC0803809F4C6C082382A
:107CE00009F0C3C08091C90187708093E900809139
:107CF000EB001092E9002091E800277F2093E80034
:107D000090E025E0969587952A95E1F7817080931C
:107D1000F1001092F10087C0882319F0823009F039
:107D2000A4C08F71823009F0A0C08091C701882360
:107D300031F52091C901277009F497C02093E9001B
:107D40008091EB0080FF1BC0933021F48091EB0009
:107D5000806213C08091EB0080618093EB0081E032
:107D600090E002C0880F991F2A95E2F78093EA00FD
:107D70001092EA008091EB0088608093EB001092F3
:107D8000E9008091E800877F51C0882309F06DC029
:107D90001091C7011F770FB7F8948091E800877F93
:107DA0008093E80099DD8091E80080FFFCCF80910E
:107DB000E3008078812B8093E30080688093E30068
:107DC000112311F482E001C083E08EBB0FBF4DC0D0
:107DD0008058823008F049C08091C7019091C80155
:107DE0006091C901AE014F5F5F4F31DDBC0100976B
:107DF00009F43BC08091E800877F8093E800898187
:107E00009A8192DE8091E8008B778093E8002DC004
:107E1000803859F58091E800877F8093E800809151
:107E2000C3018093F1008091E8008E778093E80091
:107E300053DD1BC08823C9F49091C7019230A8F488
:107E40008091E800877F8093E8009093C30144DD30
:107E50008091C301882331F48091E30087FD02C043
:107E600081E001C084E08EBBCCD98091E80083FF23
:107E70000AC08091EB0080628093EB008091E80063
:107E8000877F8093E8000F900F90CF91DF911F9133
:107E90000F91089508951F938EB3882361F0109178
:107EA000E9001092E9008091E80083FF01C0E4DE60
:107EB00017701093E9001F910895F999FECF92BDB4
:107EC00081BDF89A992780B50895262FF999FECF9C
:107ED0001FBA92BD81BD20BD0FB6F894FA9AF99AE7
:0A7EE0000FBE01960895F894FFCF3D
:107EEA007701000000000000082A035300700061B7
:107EFA000072006B00460075006E00200045006CA1
:107F0A000065006300740072006F006E0069006310
:107F1A00007300000022034C0069006C00790050D5
:107F2A000061006400550053004200200020002038
:107F3A000020002000200000000403090409023E7A
:107F4A00000201008032090400000102020100055A
:107F5A0024001001042402040524060001070582F6
:107F6A00030800FF09040100020A000000070504D3
:107F7A00021000010705830210000112011001021C
:107F8A000000084F1B07920100020100014C494CF6
:047F9A005933440013
:040000030000700089
:00000001FF
