:107000005FC0000078C0000076C0000074C00000BF
:1070100072C0000070C000006EC000006CC00000B4
:107020006AC0000068C00000EBC4000064C000003B
:1070300062C0000060C000005EC000005CC00000D4
:107040005AC0000023C1000056C0000054C0000018
:1070500052C0000050C000004EC000004CC00000F4
:107060004AC0000048C0000046C0000044C0000004
:1070700042C0000040C000003EC000003CC0000014
:107080003AC0000038C0000036C0000034C0000024
:1070900032C0000030C000002EC000002CC0000034
:1070A0002AC0000028C0000026C00000683E813EC3
:1070B000253F813E253FB63ED83E253FF83E0A3F5C
:1070C00011241FBECFEFDAE0DEBFCDBF11E0A0E09C
:1070D000B1E0E4EDFEE702C005900D92A439B107DE
:1070E000D9F721E0A4E9B1E001C01D92AA3AB207A4
:1070F000E1F79DD3EDC684CF84E08093E9008091D1
:10710000E80085FD0EC08091E8008B778093E80051
:107110008091E80082FDF3CF8EB38111F9CF80E03A
:1071200008958091F100089593E09093E900909183
:10713000E80095FF0AC08093F1005D9884E690E036
:10714000909399018093980108959091E8009E771B
:107150009093E8009091E80090FDEDCF9EB39111DF
:10716000F9CF08958098889A80917C00806C8093F4
:107170007C0080917C00807E80937C008FEC97E087
:107180000197F1F700C0000080917A00806480933D
:107190007A0080917A0086FDFCCF80917800209162
:1071A000790090E0922B0895F89410926F0010925D
:1071B0008100109285001092840081E085BF15BE89
:1071C00047985D9A289A0C94000008958091BC001D
:1071D00087FFFCCF08958093BB0084E88093BC00B8
:1071E0008091BC0087FFFCCF0895F0DF8EE5F3DFD0
:1071F00083E7F1DF84E98093BC0008955D982898C7
:10720000479A2FEF80E792E0215080409040E1F7CD
:1072100000C000005D9A289A47982FEF80E792E01F
:10722000215080409040E1F700C00000E7CF8091FE
:107230009E0190919F01019690939F0180939E01E2
:10724000292F97FF02C02EEF291B220F281710F4B9
:1072500047980895479A0895E1E6F0E080E8808332
:10726000108281E085BF82E085BF3F9A209A559ABF
:1072700047985D9A289A109289009AEF9093880017
:1072800080936F0083E080938100A2C31F920F92CE
:107290000FB60F9211242F938F939F93EF93FF9329
:1072A000109285001092840080919801909199012C
:1072B000009741F001979093990180939801892B51
:1072C00009F45D9A8091960190919701009741F0A1
:1072D00001979093970180939601892B09F4289A3E
:1072E000E0E0F0E085919491019649F0809194015D
:1072F0009091950101969093950180939401FF914F
:10730000EF919F918F912F910F900FBE0F901F9033
:10731000189542E061EC82E0EED242E161E883E060
:10732000EAD242E160E884E0E6C28091A201982FAF
:107330009F77913239F59091A301903291F091327B
:1073400009F5813AF9F48091E800877F8093E8009D
:1073500067E070E080E091E001D48091E8008B77F5
:107360000FC0813279F48091E800877F8093E80034
:1073700067E070E080E091E04AD48091E8008E7789
:107380008093E80008954F925F926F927F928F9260
:107390009F92AF92BF92CF92DF92EF92FF92CF93E4
:1073A000DF9384E08093E9008091E80082FF30C29F
:1073B000289884E690E090939701809396019CDE54
:1073C000D82F853481F484EF9FEF909395018093BB
:1073D000940107B600FCFDCFF999FECF81E18093BF
:1073E0005700E89503C0843521F486DE8DE09CDEED
:1073F000E6C18C34D9F38035C9F3843721F484E4B1
:1074000093DE80E0F4CF813611F489E5F0CF81344A
:1074100091F472DEC82F70DE90E0880F991F2C2F38
:1074200030E0322F2227330F822B932BAA2797FD90
:10743000A095BA2F98C1803711F483E5D8CF833552
:1074400049F4CBE8D1E089916FDE21E0C239D2075F
:10745000D1F7B5C1863521F481E366DE80E3C7CF7D
:10746000833731F487E860DE85E95EDE8EE1BFCFE9
:107470008536B9F4E0E0F0E083E095E080935700D2
:10748000E89507B600FCFDCF90935700E89507B646
:1074900000FCFDCFE058FF4FE11520E7F20771F740
:1074A000A5CF823719F4E1E0F0E00EC0863419F47C
:1074B000E0E0F0E009C08E3419F4E3E0F0E004C04D
:1074C000813539F4E2E0F0E089E08093570084915F
:1074D0008ECF823631F489E527DE80E025DE80E834
:1074E00086CF823419F0873609F0D5C01092950105
:1074F0001092940101DED82EFFDDE82EFDDDC82FAD
:107500008BEB8C0F823010F08FE371CFF12CFD28C4
:1075100010926F00D73609F045C081E18093570083
:10752000E8955701912CD1E0A114B10409F4AFC042
:10753000C0909A01D0909B01E0909C01F0909D0139
:10754000C634B9F4E92DF0E0EC29FD298491ECDD95
:10755000992069F082E0C80ED11CE11CF11CC09298
:107560009A01D0929B01E0929C01F0929D019D2690
:1075700015C0D701C601B695A7959795879592D462
:10758000D3DDE2E0CE0ED11CE11CF11CC0929A01C9
:10759000D0929B01E0929C01F0929D01F1E0AF1A24
:1075A000B108C2CF80909A0190909B01A0909C015D
:1075B000B0909D01C63421F0C12CD12CD1E030C057
:1075C00083E0F40180935700E89507B600FCFDCFF7
:1075D000F3CFC63461F5DD2039F140909A01509027
:1075E0009B0160909C0170909D0186DD2C2D30E008
:1075F000382BF2010901D0935700E8951124F2E0ED
:107600004F0E511C611C711C40929A0150929B01BB
:1076100060929C0170929D01DD2621E0E21AF10842
:10762000E114F104B1F627C067DDC82EF5CF64DDA3
:10763000682F80919A0190919B01A0919C01B0913B
:107640009D01B695A7959795879534D440919A0159
:1076500050919B0160919C0170919D014E5F5F4F25
:107660006F4F7F4F40939A0150939B0160939C0111
:1076700070939D01D2CFC63441F485E0F40180932C
:107680005700E89507B600FCFDCF8DE04DDD82E0A8
:1076900080936F0094C0833471F4C0919A01D091AB
:1076A0009B012ADD90E021E0FE010C0120935700B0
:1076B000E89511249BCE833601F5C0909A01D090B5
:1076C0009B01E0909C01F0909D0116DDF601E160C8
:1076D00090E021E00C0120935700E8951124F2E09E
:1076E000CF0ED11CE11CF11CC0929A01D0929B01DB
:1076F000E0929C01F0929D0179CE8D3661F4E0918B
:107700009A01F0919B0185E080935700E89507B6B8
:1077100000FCFDCF6BCE823551F4E0919A01F091DF
:107720009B01C591D4918D2FFFDC8C2F60CE8434CA
:1077300019F5E2DC682F80919A0190919B01A0914C
:107740009C01B0919D01B695A79597958795B2D369
:1077500080919A0190919B01A0919C01B0919D0113
:107760000296A11DB11D80939A0190939B01A09355
:107770009C01B0939D013ACE8436F1F4C0909A01F9
:10778000D0909B01E0909C01F0909D01D701C60133
:10779000B695A7959795879585D3C6DC22E0C20E4E
:1077A000D11CE11CF11CC0929A01D0929B01E09285
:1077B0009C01F0929D0103C08B3109F0A5CE83E0BE
:1077C0008093E9009091E8008091E8008E778093A3
:1077D000E80095FD11C08091E80080FD04C08EB3E3
:1077E0008111F9CF15C08091E8008E778093E80071
:1077F00003C08EB3882361F08091E80080FFF9CF49
:1078000084E08093E9008091E8008B778093E80022
:10781000DF91CF91FF90EF90DF90CF90BF90AF902E
:107820009F908F907F906F905F904F90089514BEBF
:1078300088E10FB6F89480936000109260000FBE4C
:107840006A98729A8FE19EE40197F1F700C00000F8
:10785000629B12C0E0E0F0E085919491019661F0A6
:107860008091E00081608093E000BFDC82EB98E3D0
:10787000893E924048F4C2DCEFDC78946299F0CF04
:1078800082DDF9D2D4DCFACF8FDC80E090E008957D
:10789000292F30E02230310539F02330310549F00D
:1078A0002130310561F410C08EE390E02BE331E02C
:1078B0001EC0882371F0813089F08230A1F080E011
:1078C00090E020E030E013C082E190E029E731E071
:1078D0000EC084E090E027E331E009C08CE190E045
:1078E00029E131E004C080E190E027E031E0FA01D5
:1078F0003183208308958093E900EBEEF0E08081EE
:1079000081608083EDEEF0E010826093EC004083B4
:107910008091EE00881F8827881F08958091A2011A
:1079200087FD05C08091E80080FF0DC010C08091E8
:10793000E80082FD04C08EB38111F9CF08958091D3
:10794000E8008B7707C08EB38111ECCF089580914A
:10795000E8008E778093E80008950F931F93CF93EC
:10796000DF9341D048D0C8EDD0E088818F778883FD
:1079700088818068888388818F7D888319BC1EBA3E
:107980001092A00100EE10E0F80180818B7F8083CF
:1079900088818160888342E060E080E0ACDFE1EED6
:1079A000F0E080818E7F8083E2EEF0E08081816074
:1079B0008083808188608083F80180818E7F8083CE
:1079C000888180618883DF91CF911F910F91089505
:1079D000E7EDF0E08081816080838AE482BF81E00E
:1079E0008093A101BACFE8EDF0E080818E7F8083A3
:1079F0001092E20008951092DA001092E1000895CA
:107A00001F920F920FB60F9211242F933F934F9313
:107A10005F936F937F938F939F93AF93BF93EF93F6
:107A2000FF938091DA0080FF19C08091D80080FF19
:107A300015C08091DA008E7F8093DA008091D900A2
:107A400019BC80FF09C082E089BD09B400FEFDCFEA
:107A500081E08EBB0FD202C01EBA0CD28091E10031
:107A600080FF17C08091E20080FF13C08091E20088
:107A70008E7F8093E2008091E20080618093E2003B
:107A80008091D80080628093D80019BC85E08EBBBD
:107A9000F1D18091E10084FF2BC08091E20084FF4E
:107AA00027C019BC82E089BD09B400FEFDCF8091DA
:107AB000D8008F7D8093D8008091E1008F7E8093E5
:107AC000E1008091E2008F7E8093E2008091E200ED
:107AD00081608093E2008091A001811104C08091B7
:107AE000E30087FF02C084E001C081E08EBBC2D109
:107AF0008091E10083FF21C08091E20083FF1DC0DF
:107B00008091E100877F8093E10082E08EBB10923C
:107B1000A0018091E1008E7F8093E1008091E200DE
:107B20008E7F8093E2008091E20080618093E2008A
:107B300042E060E080E0DFDE9DD1FF91EF91BF91F8
:107B4000AF919F918F917F916F915F914F913F91F5
:107B50002F910F900FBE0F901F9018952091A801A4
:107B60003091A9012617370748F06115710539F4DE
:107B70002091E8002E772093E80001C0B901FC01B4
:107B800020E061157105A1F18EB38823E1F1853004
:107B9000E1F18091E80083FD34C08091E80082FF2C
:107BA00006C08091E80082FF26C080E008958091A1
:107BB000E80080FFE6CF2091F3008091F20090E092
:107BC000922B6115710551F08830910538F421919F
:107BD0002093F100615071090196F3CF21E00897DD
:107BE00009F020E08091E8008E778093E800C9CF0B
:107BF0002111CACFD6CF8EB3882329F0853089F6DC
:107C000004C081E0089582E0089583E0089561153D
:107C1000710529F42091E8002B772093E800611585
:107C2000710531F12EB3222361F1253061F12091EC
:107C3000E80023FD22C02091E80022FFF3CFFC01E1
:107C4000CF014091F3002091F20030E0342B232B40
:107C500009F38091F1008193CF01615071096115A1
:107C6000710571F7D7CF8EB3882359F0853059F05D
:107C70008091E80080FFF7CF02C081E0089580E0A6
:107C8000089582E0089583E008950F931F93CF93A2
:107C9000DF9300D0CDB7DEB7E2EAF1E08091F100EA
:107CA000819381E0EA3AF807C9F73FDB8091E80069
:107CB00083FFCBC02091A2013091A301832F90E0DC
:107CC0008A30910508F0C1C0FC01EA5AF74CE4C0C3
:107CD000223809F0BAC08091A60187708093E9002C
:107CE0009091EB001092E9008091E800877F8093EB
:107CF000E80095FB882780F98093F1001092F1004D
:107D000082C0822F8D7F09F0A0C0223009F09DC073
:107D10008091A401811124C02091A601277009F44B
:107D200094C02093E9008091EB0080FF19C08091FE
:107D3000EB00333011F4806211C080618093EB005E
:107D400081E090E0022E01C0880F0A94EAF7809348
:107D5000EA001092EA008091EB0088608093EB00CB
:107D60001092E9008091E800877F50C021116DC01A
:107D70001091A4011F770FB7F8948091E800877FD6
:107D80008093E800CBDD8091E80080FFFCCF8091FC
:107D9000E3008078812B8093E30080688093E30088
:107DA000112311F083E001C082E08EBB0FBF4DC0F4
:107DB0002058223008F049C0AE014F5F5F4F6091FC
:107DC000A6018091A4019091A50162DD009709F4BC
:107DD0003CC02091E800277F2093E800BC01898106
:107DE0009A81BCDE8091E8008B778093E8002DC0FB
:107DF000203859F58091E800877F8093E8008091D2
:107E0000A0018093F1008091E8008E778093E800D4
:107E100085DD1BC0211119C09091A4019230A8F4F6
:107E20008091E800877F8093E8009093A00176DD41
:107E30008091A001811104C08091E30087FF02C0FE
:107E400084E001C081E08EBB64DA8091E80083FFAA
:107E50000AC08091EB0080628093EB008091E80083
:107E6000877F8093E8000F900F90DF91CF911F9153
:107E70000F9108950895CF938EB3882359F0C09140
:107E8000E900C7701092E9008091E80083FDFDDEF3
:107E9000C093E900CF910895EE0FFF1F0590F49174
:107EA000E02D0994F999FECF92BD81BDF89A9927EA
:107EB00080B50895262FF999FECF1FBA92BD81BDD6
:107EC00020BD0FB6F894FA9AF99A0FBE019608955C
:047ED000F894FFCF54
:107ED40000000000000008100355006E006B006EE7
:107EE400006F0077006E0000001C03550053004231
:107EF40000200049002F004F00200062006F006145
:107F0400007200640000000403090409023E000238
:107F1400010080320904000001020201000524006E
:107F24001001042402040524060001070582030845
:107F340000FF09040100020A000000070504021002
:107F44000001070583021000011201100102000064
:107F54000841233600010002010001434154455207
:047F6400494E410041
:040000030000700089
:00000001FF
