:1070000055C000006EC000006CC000006AC00000E7
:1070100068C0000066C0000064C0000062C00000DC
:1070200060C000005EC000009AC400005AC00000AA
:1070300058C0000056C0000054C0000052C00000FC
:1070400050C00000E1C000004CC000004AC0000079
:1070500048C0000046C0000044C0000042C000001C
:1070600040C000003EC000003CC000003AC000002C
:1070700038C0000036C0000034C0000032C000003C
:1070800030C000002EC000002CC000002AC000004C
:1070900028C0000026C0000024C0000022C000005C
:1070A00020C000001EC000001CC0000011241FBE34
:1070B000CFEFDAE0DEBFCDBF11E0A0E0B1E0E4E267
:1070C000FEE702C005900D92A639B107D9F721E07D
:1070D000A6E9B1E001C01D92AC3AB207E1F75CD37A
:1070E00095C68ECF84E08093E9008091E80085FF0B
:1070F00003C08091F1000CC08091E8008B778093F1
:10710000E8008091E80082FDF0CF8EB38111F9CFC5
:10711000089593E09093E9009091E80095FF0AC0EC
:107120008093F1005B9884E690E090939B018093BC
:107130009A0108959091E8009E779093E8009091CD
:10714000E80090FDEDCF9EB39111F9CF0895F8942A
:1071500010926F00109281001092850010928400AE
:1071600081E085BF15BE47985B9A5A9A0C9400003F
:10717000089584EA8093BC008091BC0087FFFCCF17
:1071800008958093BB0084E88093BC008091BC008C
:1071900087FFFCCF0895EDDF8EE5F3DF80E0F1DFC0
:1071A00084E98093BC0008952091A0013091A10151
:1071B0002F5F3F4F3093A1012093A001832F37FF12
:1071C00002C08EEF831B880F821710F44798089532
:1071D000479A0895E1E6F0E080E88083108281E03C
:1071E00085BF82E085BF3F9A529A539A47985B9A2F
:1071F0005A9A109289009AEF9093880080936F00BA
:1072000083E08093810093C31F921FB61F921124C5
:107210002F938F939F93EF93FF931092850010927B
:10722000840080919A0190919B01009741F0019711
:1072300090939B0180939A01892B09F45B9A80912A
:10724000980190919901009741F0019790939901CD
:1072500080939801892B09F45A9AF0E0E0E0859137
:107260009491019649F08091960190919701019631
:107270009093970180939601FF91EF919F918F9149
:107280002F911F901FBE1F90189542E061EC82E085
:10729000E3D242E161E883E0DFD242E160E884E0EA
:1072A000DBC28091A401982F9F779132B9F490911D
:1072B000A5019032A1F0913289F4813A79F480915C
:1072C000E800877F8093E80067E070E080E091E06D
:1072D000F4D38091E8008B778093E80008958132A1
:1072E000E9F78091E800877F8093E80067E070E02D
:1072F00080E091E036D48091E8008E77EDCF4F9218
:107300005F926F927F928F929F92AF92BF92CF9235
:10731000DF92EF92FF920F931F93CF93DF9384E05E
:107320008093E9008091E80082FF25C25A9884E6A4
:1073300090E09093990180939801D4DEC82F853412
:1073400051F584EF9FEF909397018093960107B6D4
:1073500000FCFDCFF999FECF81E180935700E895BD
:107360008DE0D7DE83E08093E9009091E800809182
:10737000E8008E778093E80095FFF0C18091E800E7
:1073800080FFF6C184E08093E9008091E8008B776C
:107390008093E800F0C1843511F4A4DEE1CF8C3491
:1073A000F9F28035E9F2843721F484E4B2DE80E03A
:1073B000D8CF89E5C136A9F2C134D1F493DEC82F04
:1073C00091DE2C2F30E0322F2227330F90E0880FF0
:1073D000991F822B932B092E000CAA0BBB0B8093B9
:1073E0009C0190939D01A0939E01B0939F01B8CF03
:1073F00083E5C03709F4B5CFC33549F4CDE8D1E012
:10740000899187DE21E0C439D207D1F7ABCFC635E9
:1074100021F481E37EDE80E3A4CFC33731F487E833
:1074200078DE85E976DE8EE19CCFC536B9F4F0E0F2
:10743000E0E083E095E080935700E89507B600FC14
:10744000FDCF90935700E89507B600FCFDCFE058BC
:10745000FF4FE11520E7F20771F782CF89E0E1E005
:10746000F0E0C23779F089E0F0E0E0E0C63451F0B6
:1074700089E0E3E0F0E0CE3429F0C13539F489E069
:10748000E2E0F0E08093570084916BCFC23631F494
:1074900089E53FDE80E03DDE80E863CFC23419F04D
:1074A000C73609F0CBC010929701109296011ADEF0
:1074B000182F18DE082F16DED82F8BEB8D0F823099
:1074C00010F08FE34ECF10926F00C73609F045C021
:1074D00081E180935700E895C0E0BB24B39401504C
:1074E000110920F482E080936F003CCFC0909C0192
:1074F000D0909D01E0909E01F0909F01D634B9F4A8
:10750000EC2FF0E0EC29FD29849103DECC2369F017
:1075100082E0C80ED11CE11CF11CC0929C01D092EB
:107520009D01E0929E01F0929F01CB25D8CFD7011B
:10753000C601B695A7959795879552D4EADDE2E006
:10754000CE0ED11CE11CF11CC0929C01D0929D0179
:10755000E0929E01F0929F01C2CF40909C0150901A
:107560009D0160909E0170909F01D63441F483E0AC
:10757000F20180935700E89507B600FCFDCFC0E00C
:10758000F12CEE24E39424C0D63409F034C0FF205B
:1075900079F180909C0190909D01A0909E01B09007
:1075A0009F01A0DD982F8C2FF4010C01E092570071
:1075B000E8951124F2E08F0E911CA11CB11C809261
:1075C0009C0190929D01A0929E01B0929F01FE2489
:1075D00001501109C8F6D63441F485E0F2018093D8
:1075E0005700E89507B600FCFDCF8DE092DD7ACF1D
:1075F00079DDC82FECCF76DD682F80919C019091CA
:107600009D01A0919E01B0919F01B695A795979578
:107610008795EED380919C0190919D01A0919E0150
:10762000B0919F010296A11DB11D80939C01909382
:107630009D01A0939E01B0939F01CACFC33471F402
:10764000C0919C01D0919D014DDD90E021E0FE01B3
:107650000C0120935700E895112482CEC33601F522
:10766000C0909C01D0909D01E0909E01F0909F0100
:1076700039DDF601E16090E021E00C012093570034
:10768000E8951124F2E0CF0ED11CE11CF11CC09250
:107690009C01D0929D01E0929E01F0929F0160CEEC
:1076A000CD3661F4E0919C01F0919D0185E08093DD
:1076B0005700E89507B600FCFDCF52CEC23551F415
:1076C000E0919C01F0919D01C591D4918D2F21DD18
:1076D0008C2F47CEC434D9F405DD682F80919C01EE
:1076E00090919D01A0919E01B0919F01B695A795A3
:1076F000979587957DD380919C0190919D01A09154
:107700009E01B0919F010296A11DB11D68CEC436A5
:10771000F1F4C0909C01D0909D01E0909E01F0900A
:107720009F01D701C601B695A7959795879558D320
:10773000F0DC22E0C20ED11CE11CF11CC0929C01C5
:10774000D0929D01E0929E01F0929F010BCECB3131
:1077500009F408CEB6CE8EB3882369F08091E80094
:1077600080FFF9CF8091E8008E778093E80006CE05
:107770008EB3811103CEDF91CF911F910F91FF90B6
:10778000EF90DF90CF90BF90AF909F908F907F90C1
:107790006F905F904F90089514BE0FB6F894A8951F
:1077A00080916000886180936000109260000FBE3D
:1077B0006A98729A8FE19EE40197F1F700C0000089
:1077C000629B06C0F0E0E0E085919491019621F47F
:1077D00001DD7894629B0AC08091E0008160809313
:1077E000E000D9DCB4DC90E080E0089588DDE1D2EF
:1077F000DBDCF0CFFA01292F30E022303105C1F077
:107800002330310551F02130310509F582E190E056
:107810002BE731E0318320830895882371F0813094
:1078200089F08230A1F486E290E027E031E0F2CFE7
:107830008EE390E02DE331E0EDCF84E090E029E3AA
:1078400031E0E8CF8CE190E02BE131E0E3CF90E054
:1078500080E030E020E0DECF8093E900EBEEF0E066
:10786000808181608083EDEEF0E010826093EC0017
:1078700040838091EE00881F8827881F089580919B
:10788000A40187FF11C08091E80082FF06C08091AB
:10789000E8008B778093E80003C08EB38111F3CFAB
:1078A00008958EB38823E1F38091E80080FFF9CF3B
:1078B0008091E8008E77EECF0F931F93CF93DF93E5
:1078C00041D048D0C8EDD0E088818F778883888107
:1078D0008068888388818F7D888319BC1EBA109246
:1078E000A20100EE10E0F80180818B7F8083888107
:1078F0008160888342E060E080E0AEDFE1EEF0E0AE
:1079000080818E7F8083E2EEF0E0808181608083E1
:10791000808188608083F80180818E7F8083888168
:1079200080618883DF91CF911F910F910895E7EDDA
:10793000F0E08081816080838AE482BF81E080936F
:10794000A301BACFE8EDF0E080818E7F80831092B2
:10795000E20008951092DA001092E10008951F925B
:107960000F920FB60F9211242F933F934F935F9373
:107970006F937F938F939F93AF93BF93EF93FF93F7
:107980008091DA0080FF16C08091D80080FF12C07D
:107990008091DA008E7F8093DA008091D90019BC43
:1079A00080FF4BC082E089BD09B400FEFDCF81E0BD
:1079B0008EBBFED18091E10080FF17C08091E20074
:1079C00080FF13C08091E2008E7F8093E20080915F
:1079D000E20080618093E2008091D8008062809311
:1079E000D80019BC85E08EBBE3D18091E10084FF13
:1079F0002EC08091E20084FF2AC019BC82E089BDBC
:107A000009B400FEFDCF8091D8008F7D8093D8000F
:107A10008091E1008F7E8093E1008091E2008F7E73
:107A20008093E2008091E20081608093E200809187
:107A3000A201882329F084E008C01EBAB9D1BACFC8
:107A40008091E30087FDF7CF81E08EBBB1D18091BB
:107A5000E10083FF21C08091E20083FF1DC080917F
:107A6000E100877F8093E10082E08EBB1092A2014B
:107A70008091E1008E7F8093E1008091E2008E7F13
:107A80008093E2008091E20080618093E20042E016
:107A900060E080E0E1DE8CD1FF91EF91BF91AF918A
:107AA0009F918F917F916F915F914F913F912F9116
:107AB0000F900FBE0F901F901895FC01CB012091E5
:107AC000AA013091AB012617370790F0009729F4EF
:107AD0002091E8002E772093E80040E0009751F4D1
:107AE000411108C08091E80082FF30C080E0089515
:107AF000C901F3CF2EB3222391F1253061F12091FA
:107B0000E80023FD2AC02091E80022FDEBCF209160
:107B1000E80020FFE3CF3091F3002091F2000097BE
:107B200019F02830310558F041E02830310509F0CE
:107B300040E02091E8002E772093E800CFCF4191DC
:107B40004093F10001972F5F3F4FE9CF8EB3882319
:107B500031F0853039F683E0089581E0089582E0C0
:107B60000895FC01CB01009729F42091E8002B77C0
:107B70002093E800009731F48091E80080FF1BC05B
:107B800080E008952EB32223F9F02530C9F020912A
:107B9000E80023FD17C02091E80022FFEBCF3091D1
:107BA000F3002091F200232B01F32091F1002193A7
:107BB0000197A9F7DACF8EB3882331F08530E1F64B
:107BC00083E0089581E0089582E008950F931F9364
:107BD000CF93DF9300D0CDB7DEB784EA91E0FC010C
:107BE00001962091F100208321E08C3A9207B9F7A9
:107BF00058DB8091E80083FF29C08091A401909117
:107C0000A5019A3018F5E92FF0E0E85FF04CE2C0EA
:107C10008238E1F48091A80187708093E900809117
:107C2000EB0085FB882780F91092E9009091E8002D
:107C3000977F9093E8008093F1001092F10080917B
:107C4000E8008E77B1C0823009F492C08091E800DC
:107C500083FF0AC08091EB0080628093EB008091EB
:107C6000E800877F8093E8000F900F90DF91CF911D
:107C70001F910F9108959091EB0090619093EB000C
:107C800021E030E001C0220F8A95EAF72093EA0054
:107C90001092EA008091EB0088607FC08111D6CFFE
:107CA0001091A6011F770FB7F8948091E800877FA5
:107CB0008093E800E4DD8091E80080FFFCCF8091B4
:107CC000E3008078812B8093E30080688093E30059
:107CD00082E0111183E08EBB0FBFB8CF8058823095
:107CE00008F0B4CFAE014F5F5F4F6091A801809163
:107CF000A6019091A7017EDDBC01892B09F4A6CFD6
:107D00008091E800877F8093E80089819A81D5DEA1
:107D10008091E8008B778093E80098CF803809F055
:107D200095CF8091E800877F8093E8008091A20141
:107D30008093F10084CF811189CF9091A601923078
:107D400008F084CF8091E800877F8093E8009093CB
:107D5000A20195DD8091A201882311F084E005C085
:107D60008091E30087FDFACF81E08EBB8EDA6ECF83
:107D70008091A601811113C08091A801877009F438
:107D800065CF8093E9002091EB0020FF08C093307D
:107D900009F071CF8091EB0080628093EB0010922C
:107DA000E9008091E800877F8093E80068DD4ECF8E
:107DB0000895CF938EB3882359F0C091E900C7701E
:107DC0001092E9008091E80083FD00DFC093E90094
:107DD000CF910895EE0FFF1F0590F491E02D0994C7
:107DE000F999FECF92BD81BDF89A992780B5089583
:107DF000262FF999FECF1FBA92BD81BD20BD0FB6C7
:107E0000F894FA9AF99A0FBE01960895F894FFCF64
:107E1000083E233E263E233E263E4E3E6E3E263EF6
:047E20008E3E9B3EB9
:107E2400000000000000082603410072007800747E
:107E340000650072007200610000001C03410072C2
:107E44000078007400650072007200610020003345
:107E54000044006F00540000000403090409023EBA
:107E64000002010080320904000001020201000541
:107E740024001001042402040524060001070582DD
:107E8400030800FF09040100020A000000070504BA
:107E94000210000107058302100001120110010203
:107EA400000008D8042EEC010002010001434154F3
:067EB4004552494E410059
:040000030000700089
:00000001FF
