:107000005FC0000078C0000076C0000074C00000BF
:1070100072C0000070C000006EC000006CC00000B4
:107020006AC0000068C00000AFC4000064C0000077
:1070300062C0000060C000005EC000005CC00000D4
:107040005AC00000EEC0000056C0000054C000004E
:1070500052C0000050C000004EC000004CC00000F4
:107060004AC0000048C0000046C0000044C0000004
:1070700042C0000040C000003EC000003CC0000014
:107080003AC0000038C0000036C0000034C0000024
:1070900032C0000030C000002EC000002CC0000034
:1070A0002AC0000028C0000026C000002C3E453E3B
:1070B000F13E453EF13E7D3E9F3EF13EBF3ED13E1C
:1070C00011241FBECFEFDAE0DEBFCDBF11E0A0E09C
:1070D000B1E0ECE6FEE702C005900D92A439B107DD
:1070E000D9F721E0A4E9B1E001C01D92AA3AB207A4
:1070F000E1F767D3B9C684CF84E08093E90080913B
:10710000E80085FD0DC08091E8008B778093E80052
:107110008091E80082FDF3CF8EB38111F9CF02C0D8
:107120008091F100089593E09093E9009091E80038
:1071300095FF0AC08093F1005D9884E690E09093FB
:1071400099018093980108959091E8009E7790931B
:10715000E8009091E80090FDEDCF9EB39111F9CF3A
:107160000895F89410926F0010928100109285009B
:107170001092840081E085BF15BE47985D9A289AD9
:107180000C940000089584EA8093BC008091BC00B8
:1071900087FFFCCF08958093BB0084E88093BC00F8
:1071A0008091BC0087FFFCCF0895EDDF8EE5F3DF13
:1071B00083E7F1DF84E98093BC00089520919E016C
:1071C00030919F012F5F3F4F30939F0120939E018D
:1071D000832F37FF02C08EEF831B3327880F90E089
:1071E0008217930714F447980895479A0895E1E6A3
:1071F000F0E080E88083108281E085BF82E085BF77
:107200003F9A209A559A47985D9A289A1092890039
:107210009AEF9093880080936F0083E080938100C1
:107220009BC31F920F920FB60F9211242F938F932F
:107230009F93EF93FF9310928500109284008091AA
:10724000980190919901009741F0019790939901CD
:1072500080939801892B09F45D9A80919601909111
:107260009701009741F001979093970180939601C1
:10727000892B09F4289AE0E0F0E085919491019639
:1072800049F0809194019091950101969093950118
:1072900080939401FF91EF919F918F912F910F9087
:1072A0000FBE0F901F90189542E061EC82E0E9D28A
:1072B00042E161E883E0E5D242E160E884E0E1C2D6
:1072C0008091A201982F9F77913239F59091A30177
:1072D000903291F0913209F5813AF9F48091E80009
:1072E000877F8093E80067E070E080E091E0FAD368
:1072F0008091E8008B770FC0813279F48091E800AB
:10730000877F8093E80067E070E080E091E042D4FE
:107310008091E8008E778093E80008954F925F9205
:107320006F927F928F929F92AF92BF92CF92DF9295
:10733000EF92FF920F931F93CF93DF9384E080939C
:10734000E9008091E80082FF2BC2289884E690E053
:107350009093970180939601CFDEC82F853481F4F6
:1073600084EF9FEF909395018093940107B600FC02
:10737000FDCFF999FECF81E180935700E89503C0D6
:10738000843521F4B9DE8DE0CEDEE1C18C34D9F351
:107390008035C9F3843721F484E4C5DE80E0F4CF7E
:1073A000813611F489E5F0CF813491F4A5DEC82F40
:1073B000A3DE2C2F30E0322F2227330F90E0880FEE
:1073C000991F822B932B092E000CAA0BBB0B93C188
:1073D000803711F483E5D8CF833549F4CBE8D1E089
:1073E0008991A1DE21E0C239D207D1F7B0C186353B
:1073F00021F481E398DE80E3C7CF833731F487E857
:1074000092DE85E990DE8EE1BFCF8536B9F4E0E00B
:10741000F0E083E095E080935700E89507B600FC24
:10742000FDCF90935700E89507B600FCFDCFE058DC
:10743000FF4FE11540E7F40771F7A5CF823719F444
:10744000E1E0F0E00EC0863419F4E0E0F0E009C0BD
:107450008E3419F4E3E0F0E004C0813539F4E2E061
:10746000F0E089E08093570084918ECF823631F42A
:1074700089E559DE80E057DE80E886CF823419F056
:10748000873609F0D0C0109295011092940134DE35
:10749000082F32DED82F30DE182F8BEB810F823091
:1074A00010F08FE371CF8D2F90E0902B10926F0032
:1074B000C73609F042C021E120935700E895EC015E
:1074C000B12C01E0209709F4AAC0C0909A01D09095
:1074D0009B01E0909C01F0909D011634B9F4EB2DD6
:1074E000F0E0EC29FD2984911EDEBB2069F052E01A
:1074F000C50ED11CE11CF11CC0929A01D0929B01D7
:10750000E0929C01F0929D01B02615C0D701C60102
:10751000B695A7959795879591D405DE82E0C80E1C
:10752000D11CE11CF11CC0929A01D0929B01E09207
:107530009C01F0929D012197C5CF80909A01909077
:107540009B01A0909C01B0909D01163441F423E072
:10755000F40120935700E89507B600FCFDCFE12C1D
:10756000F12CEC0101E0209709F44DC0163439F5F7
:10757000FF2009F140909A0150909B0160909C017E
:1075800070909D01B9DD2E2D30E0A901582BF2013C
:107590000A0100935700E8951124F2E04F0E511CA8
:1075A000611C711C40929A0150929B0160929C0157
:1075B00070929D0102C0A0DDE82EF02622C09CDD65
:1075C000682F80919A0190919B01A0919C01B091AC
:1075D0009D01B695A7959795879538D480919A0186
:1075E00090919B01A0919C01B0919D010296A11DDB
:1075F000B11D80939A0190939B01A0939C01B0933D
:107600009D012197B0CF163441F485E0F4018093B9
:107610005700E89507B600FCFDCF8DE084DD82E0E1
:1076200080936F0094C0833471F4C0919A01D0911B
:107630009B0162DD90E021E0FE010C0120935700E8
:10764000E8951124A0CE833601F5C0909A01D09020
:107650009B01E0909C01F0909D014EDDF601E16000
:1076600090E021E00C0120935700E8951124F2E00E
:10767000CF0ED11CE11CF11CC0929A01D0929B014B
:10768000E0929C01F0929D017ECE8D3661F4E091F6
:107690009A01F0919B0185E080935700E89507B629
:1076A00000FCFDCF70CE823551F4E0919A01F0914B
:1076B0009B01C591D4918D2F36DD8C2F65CE8434FE
:1076C00019F51ADD682F80919A0190919B01A09184
:1076D0009C01B0919D01B695A79597958795B6D3D6
:1076E00080919A0190919B01A0919C01B0919D0184
:1076F0000296A11DB11D80939A0190939B01A093C6
:107700009C01B0939D013FCE8436F1F4C0909A0164
:10771000D0909B01E0909C01F0909D01D701C601A3
:10772000B695A7959795879589D3FDDC22E0C20E83
:10773000D11CE11CF11CC0929A01D0929B01E092F5
:107740009C01F0929D0103C08B3109F0AACE83E029
:107750008093E9009091E8008091E8008E77809313
:10776000E80095FD11C08091E80080FD04C08EB353
:107770008111F9CF15C08091E8008E778093E800E1
:1077800003C08EB3882361F08091E80080FFF9CFB9
:1077900084E08093E9008091E8008B778093E80093
:1077A000DF91CF911F910F91FF90EF90DF90CF90DD
:1077B000BF90AF909F908F907F906F905F904F9011
:1077C000089514BE0FB6F894A89580916000886162
:1077D00080936000109260000FBE6A98729A8FE1E9
:1077E0009EE40197F1F700C00000629B06C0E0E054
:1077F000F0E085919491019641F4F9DC78946299D6
:1078000004C08CDD04D3DADCFACF8091E000816023
:107810008093E000CADCA5DC80E090E00895292F89
:1078200030E02230310559F02330310569F0213044
:107830003105F9F482E190E029E731E01EC08EE3E2
:1078400090E02BE331E019C0882349F0813061F0EA
:10785000823079F480E190E027E031E00EC084E0EE
:1078600090E027E331E009C08CE190E029E131E0CC
:1078700004C080E090E020E030E0FA013183208312
:1078800008958093E900EBEEF0E0808181608083D1
:10789000EDEEF0E010826093EC0040838091EE000A
:1078A000881F8827881F08958091A20187FF0FC035
:1078B0008091E80082FD04C08EB38111F9CF10C021
:1078C0008091E8008B770AC08EB3882349F08091BD
:1078D000E80080FFF9CF8091E8008E778093E80080
:1078E00008950F931F93CF93DF9341D048D0C8EDF5
:1078F000D0E088818F7788838881806888838881B9
:107900008F7D888319BC1EBA1092A00100EE10E092
:10791000F80180818B7F808388818160888342E049
:1079200060E080E0AEDFE1EEF0E080818E7F80837A
:10793000E2EEF0E0808181608083808188608083D6
:10794000F80180818E7F8083888180618883DF91C8
:10795000CF911F910F910895E7EDF0E08081816054
:1079600080838AE482BF81E08093A101BACFE8EDF1
:10797000F0E080818E7F80831092E2000895109263
:10798000DA001092E10008951F920F920FB60F9245
:1079900011242F933F934F935F936F937F938F9314
:1079A0009F93AF93BF93EF93FF938091DA0080FF93
:1079B00019C08091D80080FF15C08091DA008E7FB9
:1079C0008093DA008091D90019BC80FF09C082E061
:1079D00089BD09B400FEFDCF81E08EBB17D202C085
:1079E0001EBA14D28091E10080FF17C08091E2009E
:1079F00080FF13C08091E2008E7F8093E20080912F
:107A0000E20080618093E2008091D80080628093E0
:107A1000D80019BC85E08EBBF9D18091E10084FFCC
:107A20002BC08091E20084FF27C019BC82E089BD91
:107A300009B400FEFDCF8091D8008F7D8093D800DF
:107A40008091E1008F7E8093E1008091E2008F7E43
:107A50008093E2008091E20081608093E200809157
:107A6000A001811106C08091E30087FD02C081E082
:107A700001C084E08EBBCAD18091E10083FF21C0A8
:107A80008091E20083FF1DC08091E100877F809399
:107A9000E10082E08EBB1092A0018091E1008E7F18
:107AA0008093E1008091E2008E7F8093E2008091DC
:107AB000E20080618093E20042E060E080E0E1DE8D
:107AC000A5D1FF91EF91BF91AF919F918F917F9140
:107AD0006F915F914F913F912F910F900FBE0F903B
:107AE0001F9018952091A8013091A90126173707FA
:107AF00048F06115710539F42091E8002E77209344
:107B0000E80001C0B901FC0120E06115710571F1C7
:107B10008EB38823D9F18530D9F18091E80083FDB7
:107B200033C08091E80082FD29C08091E80080FF89
:107B3000ECCF2091F3008091F20090E0922B611540
:107B4000710551F08830910538F421912093F100AE
:107B5000615071090196F3CF21E0089709F020E008
:107B60008091E8008E778093E800CFCF2111D0CFAD
:107B700005C08EB3882351F0853051F08091E80024
:107B800082FFF7CF80E0089581E0089582E00895B4
:107B900083E008956115710529F42091E8002B77A1
:107BA0002093E800FC016115710531F18EB3882343
:107BB00059F1853059F18091E80083FD23C080910F
:107BC000E80082FFF0CF2091F3008091F20090E076
:107BD000922B892B31F08091F100819361507109D2
:107BE00091F78091E8008B778093E800DCCF8EB32B
:107BF000882351F0853051F08091E80080FFF7CF65
:107C000080E0089581E0089582E0089583E008957A
:107C10000F931F93CF93DF9300D0CDB7DEB7E2EA87
:107C2000F1E08AEA91E02091F10021938E179F07FD
:107C3000D1F746DB8091E80083FFD3C08091A20199
:107C40009091A301492F50E04A30510508F0C9C076
:107C5000FA01EA5AF74CECC0823809F0C2C08091B0
:107C6000A60187708093E9008091EB001092E900F3
:107C70009091E800977F9093E80085FB882780F932
:107C80008093F1001092F10085C0282F2D7F09F01C
:107C9000A8C0823009F0A5C08091A401811127C03D
:107CA0008091A601877009F49CC08093E90020911F
:107CB000EB0020FF1CC0933021F48091EB00806228
:107CC00014C09091EB0090619093EB0021E030E0C4
:107CD000A90102C0440F551F8A95E2F74093EA00BC
:107CE0001092EA008091EB0088608093EB00109284
:107CF000E9008091E800877F50C0811172C0109127
:107D0000A4011F770FB7F8948091E800877F8093D4
:107D1000E800CADD8091E80080FFFCCF8091E3009D
:107D20008078812B8093E30080688093E3001111B9
:107D300002C082E001C083E08EBB0FBF52C08058FA
:107D4000823008F04EC0AE014F5F5F4F6091A601D8
:107D50008091A4019091A50162DDBC01892B09F4F9
:107D600040C09091E800977F9093E80089819A81C4
:107D7000B9DE8091E8008B778093E80032C08038CC
:107D800081F58091E800877F8093E8008091A001D1
:107D90008093F1008091E8008E778093E80084DD85
:107DA00020C081111EC08091A4019091A501992746
:107DB0000297BCF48091E800877F8093E80080916F
:107DC000A4018093A00170DD8091A001811106C003
:107DD0008091E30087FD02C081E001C084E08EBB9A
:107DE00063DA8091E80083FF0AC08091EB00806233
:107DF0008093EB008091E800877F8093E8000F90EC
:107E00000F90DF91CF911F910F9108950895CF9317
:107E10008EB3882359F0C091E900C7701092E90031
:107E20008091E80083FDF4DEC093E900CF910895CE
:107E3000EE0FFF1F0590F491E02D0994F999FECF04
:107E400092BD81BDF89A992780B50895262FF9999A
:107E5000FECF1FBA92BD81BD20BD0FB6F894FA9A2D
:0C7E6000F99A0FBE01960895F894FFCF28
:107E6C0000000000000008100355006E006B006E4F
:107E7C00006F0077006E0000001C03550053004299
:107E8C0000200049002F004F00200062006F0061AD
:107E9C00007200640000000403090409023E0002A1
:107EAC0001008032090400000102020100052400D7
:107EBC0010010424020405240600010705820308AE
:107ECC0000FF09040100020A00000007050402106B
:107EDC0000010705830210000112011001020000CD
:107EEC000841233600010002010001434154455270
:047EFC00494E4100AA
:040000030000700089
:00000001FF
